:1000F800751C00751D01AD1DAF0512008F7F647E54
:1001080000120137051DE51D7002051CC39409E5A1
:070118001C6480948040DFAD
:01011F0022BD
:10013700EF1FAC0670011E4C600A7D027CC7DCFE17
:04014700DDFC80EC6F
:01014B002291
:100120001408003F0006005B004F0066006D007D74
:060130000007007F006FD4
:10008F00D2A2C2A3C2A4EF14B40700504B9000AA8F
:10009F0075F003A4C58325F0C583730200BF02006A
:1000AF00C30200CB0200CF0200D70200DB0200E345
:1000BF00C2A28002D2A2C2A3C2A48022C2A2800284
:1000CF00D2A2D2A3C2A48016C2A28002D2A2C2A37D
:1000DF00D2A4800AC2A28002D2A2D2A3D2A4ED25BA
:0900EF00E02408F808E6F580227F
:03000000020003F8
:0C000300787FE4F6D8FD75811D02004AEC
:10000F000200F8E493A3F8E493A34003F68001F20F
:10001F0008DFF48029E493A3F85407240CC8C333F2
:10002F00C4540F4420C8834004F456800146F6DFC1
:10003F00E4800B0102040810204080900120E47E30
:10004F00019360BCA3FF543F30E509541FFEE493B6
:10005F00A360010ECF54C025E060A840B8E493A37D
:10006F00FAE493A3F8E493A3C8C582C8CAC583CAA8
:10007F00F0A3C8C582C8CAC583CADFE9DEE780BE60
:0101360000C8
:00000001FF
