:04005F007F147E008C
:10006300EF1FAC0670011E4C600A7D027CC7DCFEEC
:04007300DDFC80EC44
:010077002266
:1000030075A0FEA2B1B3502712005FA2B1B340FBAB
:1000130012005F0508E508C394084003E4F508AF40
:10002300087401A807088002C333D8FCF4F5A0A222
:10003300B0B350CF12005FA2B0B340FB12005FE534
:1000430008700575080780021508AF087401A80732
:0C005300088002C333D8FCF4F5A080A79D
:0300000002007883
:0C007800787FE4F6D8FD758108020003D3
:00000001FF
